:100000000C9462000C948A000C948A000C948A0070
:100010000C948A000C948A000C948A000C948A0038
:100020000C948A000C948A000C948A000C948A0028
:100030000C948A000C948A000C948A000C948A0018
:100040000C940E030C948A000C948A000C948A0081
:100050000C948A000C948A000C948A000C948A00F8
:100060000C948A000C948A000000000024002700F1
:100070002A0000000000250028002B0000000008D6
:10008000000201000003040700000000000000005F
:1000900000000000230026002900040404040404D6
:1000A0000404020202020202030303030303010227
:1000B00004081020408001020408102001020408F6
:1000C0001020F70411241FBECFEFD8E0DEBFCDBF54
:1000D00011E0A0E0B1E0ECEEFCE002C005900D9272
:1000E000AE36B107D9F721E0AEE6B1E001C01D920E
:1000F000A539B207E1F710E0C2E6D0E004C02197CD
:10010000FE010E946906C136D107C9F70E949D030E
:100110000C9474060C940000CF92DF92EF92FF9241
:100120000F931F93CF93DF936C017A018B01C0E093
:10013000D0E0CE15DF0589F0D8016D918D01D60193
:10014000ED91FC910190F081E02DC6010995892B7C
:1001500011F47E0102C02196ECCFC701DF91CF914F
:100160001F910F91FF90EF90DF90CF90089590E056
:10017000FC01E458FF4F3491FC01E255FF4F2491FC
:10018000FC01E656FF4FE491EE2309F43BC0332314
:1001900039F1333091F038F43130A9F0323001F5D3
:1001A00084B58F7D12C0373091F03830A1F03430F3
:1001B000B9F4809180008F7D03C0809180008F779B
:1001C000809380000DC084B58F7784BD09C0809175
:1001D000B0008F7703C08091B0008F7D8093B00016
:1001E000F0E0EE0FFF1FEE58FF4FA591B4918FB7CF
:1001F000F894EC91611103C020952E2301C02E2BA1
:100200002C938FBF0895CF93DF9390E0FC01E255CC
:10021000FF4F2491FC01E656FF4F8491882361F142
:1002200090E0880F991FFC01E859FF4FC591D491C8
:10023000FC01EE58FF4FA591B491611109C09FB721
:10024000F8948881209582238883EC912E230BC01B
:10025000623061F49FB7F8943881822F80958323B0
:100260008883EC912E2B2C939FBF06C08FB7F894F8
:10027000E8812E2B28838FBFDF91CF9108953FB760
:10028000F8948091730190917401A0917501B091DF
:10029000760126B5A89B05C02F3F19F00196A11D38
:1002A000B11D3FBFBA2FA92F982F8827820F911D0C
:1002B000A11DB11DBC01CD0142E0660F771F881F53
:1002C000991F4A95D1F708958F929F92AF92BF924E
:1002D000CF92DF92EF92FF926B017C010E943F016F
:1002E0004B015C01C114D104E104F104F1F00E945E
:1002F0003F01DC01CB0188199909AA09BB09883E95
:100300009340A105B10570F321E0C21AD108E108BC
:10031000F10888EE880E83E0981EA11CB11CC11460
:10032000D104E104F10419F7DDCFFF90EF90DF90E5
:10033000CF90BF90AF909F908F900895CF93DF9311
:10034000EC0160E08E810E94B70061E08E810E9426
:10035000B70060E08E810E94B7008BE891E00197C2
:10036000F1F7DF91CF910895CF92DF92EF92FF9254
:100370000F931F93CF93DF937C016C0187E0C80E2E
:10038000D11CC0E0D0E0062F10E0B8010C2E02C056
:10039000759567950A94E2F76170F60181916F0196
:1003A0000E94B7002196C430D10579F7C701DF91CB
:1003B000CF911F910F91FF90EF90DF90CF900C9411
:1003C0009E01CF92DF92EF92FF920F931F93CF93F4
:1003D000DF93EC01F62E642F8C810E94B7008D8193
:1003E0008F3F19F060E00E94B7008F850F2D10E05D
:1003F00084FF25C06E0187E0C80ED11CE12CF12CD2
:10040000B8010E2C02C0759567950A94E2F76170E9
:10041000F60181916F010E94B700FFEFEF1AFF0A0A
:1004200088E0E816F10461F7CE01DF91CF911F91CA
:100430000F91FF90EF90DF90CF900C949E01B80148
:1004400084E0759567958A95E1F7CE010E94B40125
:100450006F2DCE01DF91CF911F910F91FF90EF9003
:10046000DF90CF900C94B40141E00E94E10181E063
:1004700090E0089540E00C94E101843008F083E0BE
:1004800090919001891710F08FEF890FE82FF0E01D
:10049000E358FE4F648960688DE791E00C943A025E
:1004A00061E00E943A028BE39FE10197F1F7089522
:1004B000EF92FF920F931F93CF93DF93EC01623083
:1004C00018F08F8588608F876B8B1C8A80E48D8BFA
:1004D00080E18E8B80E58F8B61E08C810E9403012F
:1004E0008D818F3F19F061E00E94030161E08E81F0
:1004F0000E9403017E0187E0E80EF11C00E010E09D
:100500008F8584FD03C084E090E002C088E090E025
:10051000081719074CF461E0F70181917F010E94EF
:1005200003010F5F1F4FECCF8BE39DE00197F1F7C5
:1005300060E08C810E94B70060E08E810E94B7006D
:100540008D818F3F19F060E00E94B7006F8564FDD8
:100550001DC063E0CE010E94B4010BE416E4C801A3
:100560000197F1F763E0CE010E94B401C801019741
:10057000F1F763E0CE010E94B40183E592E00197B8
:10058000F1F762E0CE010E94B40116C06062CE01B4
:100590000E943A028BE496E40197F1F76F8560625E
:1005A000CE010E943A0283E592E00197F1F76F8550
:1005B0006062CE010E943A026F856062CE010E94A5
:1005C0003A0284E0888B6CE0CE010E943A02CE01B0
:1005D0000E94500282E0898B66E0CE01DF91CF91CC
:1005E0001F910F91FF90EF900C943A02089580E0D4
:1005F00090E00895009769F0FC0101900020E9F770
:100600003197AF01481B590BBC018DE791E00C9469
:100610008C0080E090E008950E946F061F920F9278
:100620000FB60F9211242F933F938F939F93AF9305
:10063000BF9380916F0190917001A0917101B09171
:10064000720130916E0123E0230F2D3720F40196C3
:10065000A11DB11D05C026E8230F0296A11DB11DE5
:1006600020936E0180936F0190937001A0937101AC
:10067000B09372018091730190917401A091750102
:10068000B09176010196A11DB11D809373019093E5
:100690007401A0937501B0937601BF91AF919F91C2
:1006A0008F913F912F910F900FBE0F901F90189533
:1006B000CF92DF92EF92FF920F931F93E82FF92FC3
:1006C00005C0015011092109310961F1908196237A
:1006D0009417B9F305C0015011092109310911F12D
:1006E000908196239413F7CFC12CD12CE12CF12CBF
:1006F0000AC08FEFC81AD80AE80AF80A0C151D05B7
:100700002E053F0579F080818623841791F36C2DA7
:100710007D2D8E2D9F2D1F910F91FF90EF90DF90DB
:10072000CF90089560E070E080E090E01F910F911D
:10073000FF90EF90DF90CF900895CF93DF93CDB7E8
:10074000DEB7A1970FB6F894DEBF0FBECDBF789489
:1007500084B5826084BD84B5816084BD85B58260C6
:1007600085BD85B5816085BD80916E008160809377
:100770006E001092810080918100826080938100E0
:1007800080918100816080938100809180008160F0
:10079000809380008091B10084608093B10080914B
:1007A000B00081608093B00080917A008460809373
:1007B0007A0080917A00826080937A0080917A003A
:1007C000816080937A0080917A00806880937A00BB
:1007D0001092C10062E08DE791E00E94580261E052
:1007E0008CE00E94030160E08BE00E94030180E046
:1007F0000E943D028CE091E00E94FA0281E00E949A
:100800003D028CE191E00E94FA0260ED77E080E029
:1008100090E00E9464018DE791E00E94500280E028
:100820000E943D0288E291E00E94FA0281E00E946B
:100830003D028BE391E00E94FA0260ED77E080E0F8
:1008400090E00E9464018DE791E00E94500223E055
:10085000E22EF12C33E2C32ED12C4AE0242E312C8F
:10086000412C512C95EA692E90E0792E60E08CE0C5
:100870000E94B700C7010197F1F761E08CE00E9488
:10088000B700C6010197F1F760E08CE00E94B70065
:10089000E9EBF0E06491F3018491E82FF0E0EE0FD2
:1008A000FF1FE057FF4F8591949100E412E42FE081
:1008B00030E0462F0E9458036115710581059105AE
:1008C00049F0DC01CB010196A11DB11DBC01CD0198
:1008D0009F7003C060E070E0CB016093790170937A
:1008E0007A0180937B0190937C010E944E0526E95A
:1008F00033E44BE05DE30E94B20520E030E040E0ED
:100900005FE30E94B2050E94160570937801609320
:10091000770180E00E943D028CE491E00E94FA029F
:100920006AE070E080E090E00E94640181E00E9453
:100930003D028DE591E00E94FA022091770130910D
:1009400078014901330FAA08BB08B7FE26C0E09121
:100950007D01F0917E010190F081E02D6DE28DE747
:1009600091E0099522273327A901281939094A0955
:100970005B0919A28E010F5D1F4FCA01B901A201C7
:1009800091010E944706605DF80162938F01211575
:1009900031054105510589F715C0A501940119A23A
:1009A0008E010F5D1F4FCA01B901A20191010E9482
:1009B0004706605DF80162938F01211531054105FD
:1009C000510589F7C8010E94FA0288E691E00E9469
:1009D000FA026AE070E080E090E00E94640180E04A
:1009E00090E0892B09F442CF0E9400003BCFEDE755
:1009F000F1E01382128284E091E09183808382E0AF
:100A000084838FEF858383E0868384E0878385E01A
:100A1000808786E0818787E0828713861486158623
:100A20001686178661E0CF010C9458020E941D05BE
:100A30006894B1110C94AC0508950E94910588F05A
:100A40009F5798F0B92F9927B751B0F0E1F0660F92
:100A5000771F881F991F1AF0BA95C9F714C0B130D3
:100A600091F00E94AB05B1E008950C94AB05672F9F
:100A7000782F8827B85F39F0B93FCCF38695779502
:100A80006795B395D9F73EF49095809570956195EB
:100A90007F4F8F4F9F4F0895E89409C097FB3EF416
:100AA00090958095709561957F4F8F4F9F4F9923BB
:100AB000A9F0F92F96E9BB279395F6958795779539
:100AC0006795B795F111F8CFFAF4BB0F11F460FFF9
:100AD0001BC06F5F7F4F8F4F9F4F16C0882311F051
:100AE00096E911C0772321F09EE8872F762F05C065
:100AF000662371F096E8862F70E060E02AF09A9500
:100B0000660F771F881FDAF7880F9695879597F9F4
:100B1000089557FD9058440F551F59F05F3F71F0ED
:100B20004795880F97FB991F61F09F3F79F0879554
:100B30000895121613061406551FF2CF4695F1DFDD
:100B400008C0161617061806991FF1CF869571056D
:100B5000610508940895E894BB2766277727CB01A1
:100B600097F908950E94C5050C9436060E94280640
:100B700038F00E942F0620F0952311F00C941F06E8
:100B80000C94250611240C94AC050E94890570F381
:100B9000959FC1F3950F50E0551F629FF001729F22
:100BA000BB27F00DB11D639FAA27F00DB11DAA1F31
:100BB000649F6627B00DA11D661F829F2227B00D7E
:100BC000A11D621F739FB00DA11D621F839FA00D09
:100BD000611D221F749F3327A00D611D231F849F59
:100BE000600D211D822F762F6A2F11249F575040B0
:100BF0009AF0F1F088234AF0EE0FFF1FBB1F661F2B
:100C0000771F881F91505040A9F79E3F510580F0F3
:100C10000C941F060C94AC055F3FE4F3983ED4F3AC
:100C2000869577956795B795F795E7959F5FC1F797
:100C3000FE2B880F911D9695879597F9089597F942
:100C40009F6780E870E060E008959FEF80EC089572
:100C500000240A941616170618060906089500249B
:100C60000A9412161306140605060895092E039415
:100C7000000C11F4882352F0BB0F40F4BF2B11F489
:100C800060FF04C06F5F7F4F8F4F9F4F0895A1E2B9
:100C90001A2EAA1BBB1BFD010DC0AA1FBB1FEE1FF6
:100CA000FF1FA217B307E407F50720F0A21BB30B41
:100CB000E40BF50B661F771F881F991F1A9469F7BD
:100CC00060957095809590959B01AC01BD01CF0119
:100CD0000895EE0FFF1F0590F491E02D099481E037
:0C0CE00090E0F8940C947406F894FFCF98
:100CEC000000000034028C00F702F6022020446958
:100CFC007374616E636961202020200020204D6593
:100D0C00646963616F20200020202020417271757E
:100D1C0069746574757261202020002020202048A1
:100D2C0061726477617265202020200044697374BD
:100D3C00616E636961204D65646964610044697327
:0E0D4C0074616E6369613A0020436D200000FF
:00000001FF
